:0400000041EF3EF09E
:107C8200000144EF3EF00F0EC1129580958295845B
:107C92009586000E936E000E8A6E83A053EF3EF01F
:107CA20055EF3EF0D2EF3EF0000E036E010E8A6EEB
:107CB200070E026E170E016E6A0EE82EFED7012E17
:107CC200FCD7022EFAD700D0020E8A6E070E026E81
:107CD200170E016E6A0EE82EFED7012EFCD7022E79
:107CE200FAD700D0040E8A6E070E026E170E016ECE
:107CF2006A0EE82EFED7012EFCD7022EFAD700D04C
:107D0200080E8A6E070E026E170E016E6A0EE82EBC
:107D1200FED7012EFCD7022EFAD700D0100E8A6EA3
:107D2200070E026E170E016E6A0EE82EFED7012EA6
:107D3200FCD7022EFAD700D0200E8A6E070E026EF2
:107D4200170E016E6A0EE82EFED7012EFCD7022E08
:107D5200FAD700D0400E8A6E070E026E170E016E21
:107D62006A0EE82EFED7012EFCD7022EFAD700D0DB
:107D7200800E8A6E070E026E170E016E6A0EE82ED4
:107D8200FED7012EFCD7022EFAD700D0032A030E0B
:107D92000364CEEF3EF0D0EF3EF057EF3EF04EEFF1
:107DA2003EF083A2D7EF3EF0D9EF3EF056EF3FF020
:107DB200000E046E800E8A6E070E026E170E016EA2
:107DC2006A0EE82EFED7012EFCD7022EFAD700D07B
:107DD200400E8A6E070E026E170E016E6A0EE82EB4
:107DE200FED7012EFCD7022EFAD700D0200E8A6EC3
:107DF200070E026E170E016E6A0EE82EFED7012ED6
:107E0200FCD7022EFAD700D0100E8A6E070E026E31
:107E1200170E016E6A0EE82EFED7012EFCD7022E37
:107E2200FAD700D0080E8A6E070E026E170E016E88
:107E32006A0EE82EFED7012EFCD7022EFAD700D00A
:107E4200040E8A6E070E026E170E016E6A0EE82E7F
:107E5200FED7012EFCD7022EFAD700D0020E8A6E70
:107E6200070E026E170E016E6A0EE82EFED7012E65
:107E7200FCD7022EFAD700D0010E8A6E070E026ED0
:107E8200170E016E6A0EE82EFED7012EFCD7022EC7
:107E9200FAD700D0042A030E046452EF3FF054EFE5
:107EA2003FF0DBEF3EF04EEF3EF083A45BEF3FF09E
:107EB2005DEF3FF0CCEF3FF0000E056E810E8A6E53
:107EC200070E026E170E016E6A0EE82EFED7012E05
:107ED200FCD7022EFAD700D0420E8A6E070E026E2F
:107EE200170E016E6A0EE82EFED7012EFCD7022E67
:107EF200FAD700D0240E8A6E070E026E170E016E9C
:107F02006A0EE82EFED7012EFCD7022EFAD700D039
:107F1200180E8A6E070E026E170E016E6A0EE82E9A
:107F2200FED7012EFCD7022EFAD700D0240E8A6E7D
:107F3200070E026E170E016E6A0EE82EFED7012E94
:107F4200FCD7022EFAD700D0420E8A6E070E026EBE
:107F5200170E016E6A0EE82EFED7012EFCD7022EF6
:107F6200FAD700D0052A030E0564BAEF3FF0BCEF42
:107F72003FF05FEF3FF0810E8A6E070E026E170E22
:107F8200016E6A0EE82EFED7012EFCD7022EFAD71A
:107F920000D04EEF3EF083A6D1EF3FF0D3EF3FF09B
:107FA200FAEF3FF0000E066E0F0E8A6E190E026E89
:107FB2005A0E016EB20EE82EFED7012EFCD7022E0B
:107FC200FAD7F00E8A6E190E026E5A0E016EB20EBA
:107FD200E82EFED7012EFCD7022EFAD7062A030E70
:107FE2000664F6EF3FF0F8EF3FF0D5EF3FF04EEFCB
:0E7FF2003EF0000E8A6E4EEF3EF000EF00F003
:020000040020DA
:08000000FFFFFFFFFFFFFFFF00
:020000040030CA
:0E000000210E191EFF8080FF0FC00FE00F4081
:00000001FF
