:020000040000fa
:080000000001040000000000f3
:020000040000fa
:0400080008020000ea
:020000040000fa
:04000c004a020000a4
:020000040000fa
:040010008a02000060
:020000040000fa
:0400140028020000be
:020000040000fa
:040018006a02000078
:020000040000fa
:04001c00ee020000f0
:020000040000fa
:04002000ee020000ec
:020000040000fa
:04002400ee020000e8
:020000040000fa
:04002800aa02000028
:020000040000fa
:04002c00ee020000e0
:020000040000fa
:04003000ee020000dc
:020000040000fa
:04003400ee020000d8
:020000040000fa
:04003800ee020000d4
:020000040000fa
:04003c00ee020000d0
:020000040000fa
:04004000ee020000cc
:020000040000fa
:04004400ee020000c8
:020000040000fa
:04004800ee020000c4
:020000040000fa
:04004c00ee020000c0
:020000040000fa
:04005000ee020000bc
:020000040000fa
:04005400ee020000b8
:020000040000fa
:04005800ee020000b4
:020000040000fa
:04005c00ee020000b0
:020000040000fa
:04006000ee020000ac
:020000040000fa
:04006400ee020000a8
:020000040000fa
:04006800ee020000a4
:020000040000fa
:04006c00ee020000a0
:020000040000fa
:04007000ee0200009c
:020000040000fa
:04007400ee02000098
:020000040000fa
:04007800c8020000ba
:020000040000fa
:04007c00ee02000090
:020000040000fa
:04008000ee0200008c
:020000040000fa
:04008400ee02000088
:020000040000fa
:04008800ee02000084
:020000040000fa
:04008c00ee02000080
:020000040000fa
:04009000ee0200007c
:020000040000fa
:04009400ee02000078
:020000040000fa
:04009800ee02000074
:020000040000fa
:04009c00ee02000070
:020000040000fa
:0400a000ee0200006c
:020000040000fa
:0400a400ee02000068
:020000040000fa
:0400a800ee02000064
:020000040000fa
:0400ac00ee02000060
:020000040000fa
:0400b000ee0200005c
:020000040000fa
:0400b400ee02000058
:020000040000fa
:0400b800ee02000054
:020000040000fa
:0400bc00ee02000050
:020000040000fa
:0400c000ee0200004c
:020000040000fa
:0400c400ee02000048
:020000040000fa
:0400c800ee02000044
:020000040000fa
:0400cc00ee02000040
:020000040000fa
:0400d000ee0200003c
:020000040000fa
:0400d400ee02000038
:020000040000fa
:0400d800ee02000034
:020000040000fa
:0400dc00ee02000030
:020000040000fa
:0400e000ee0200002c
:020000040000fa
:0400e400ee02000028
:020000040000fa
:0400e800ee02000024
:020000040000fa
:0400ec00ee02000020
:020000040000fa
:0400f000ee0200001c
:020000040000fa
:0400f400ee02000018
:020000040000fa
:0400f800ee02000014
:020000040000fa
:0400fc00ee02000010
:020000040000fa
:04010000ee0200000b
:020000040000fa
:04010400ee02000007
:020000040000fa
:04010800ee02000003
:020000040000fa
:04010c00ee020000ff
:020000040000fa
:04011000ee020000fb
:020000040000fa
:04011400ee020000f7
:020000040000fa
:04011800ee020000f3
:020000040000fa
:04011c00ee020000ef
:020000040000fa
:04012000ee020000eb
:020000040000fa
:04012400ee020000e7
:020000040000fa
:04012800ee020000e3
:020000040000fa
:04012c00ee020000df
:020000040000fa
:04013000ee020000db
:020000040000fa
:04013400ee020000d7
:020000040000fa
:04013800ee020000d3
:020000040000fa
:04013c00ee020000cf
:020000040000fa
:04014000ee020000cb
:020000040000fa
:04014400ee020000c7
:020000040000fa
:04014800ee020000c3
:020000040000fa
:04014c00ee020000bf
:020000040000fa
:04015000ee020000bb
:020000040000fa
:04015400ee020000b7
:020000040000fa
:04015800ee020000b3
:020000040000fa
:04015c00ee020000af
:020000040000fa
:04016000ee020000ab
:020000040000fa
:04016400ee020000a7
:020000040000fa
:04016800ee020000a3
:020000040000fa
:04016c00ee0200009f
:020000040000fa
:04017000ee0200009b
:020000040000fa
:04017400ee02000097
:020000040000fa
:04017800ee02000093
:020000040000fa
:04017c00ee0200008f
:020000040000fa
:04018000ee0200008b
:020000040000fa
:04018400ee02000087
:020000040000fa
:04018800ee02000083
:020000040000fa
:04018c00ee0200007f
:020000040000fa
:04019000ee0200007b
:020000040000fa
:04019400ee02000077
:020000040000fa
:04019800ee02000073
:020000040000fa
:04019c00ee0200006f
:020000040000fa
:0401a000ee0200006b
:020000040000fa
:0401a400ee02000067
:020000040000fa
:0401a800ee02000063
:020000040000fa
:0401ac00ee0200005f
:020000040000fa
:0401b000ee0200005b
:020000040000fa
:0401b400ee02000057
:020000040000fa
:0401b800ee02000053
:020000040000fa
:0401bc00ee0200004f
:020000040000fa
:0401c000ee0200004b
:020000040000fa
:0401c400ee02000047
:020000040000fa
:0401c800ee02000043
:020000040000fa
:0401cc00ee0200003f
:020000040000fa
:0401d000ee0200003b
:020000040000fa
:0401d400ee02000037
:020000040000fa
:0401d800ee02000033
:020000040000fa
:0401dc00ee0200002f
:020000040000fa
:0401e000ee0200002b
:020000040000fa
:0401e400ee02000027
:020000040000fa
:0401e800ee02000023
:020000040000fa
:0401ec00ee0200001f
:020000040000fa
:0401f000ee0200001b
:020000040000fa
:0401f400ee02000017
:020000040000fa
:0401f800ee02000013
:020000040000fa
:0401fc00ee0200000f
:020000040000fa
:100200008f8220000e7f24000e0188000000000075
:10021000000020000000e000020032000001200089
:100220002002880014000700ee0007000000e00034
:1002300003003a00004120000100200002003700c6
:100240000000200001002000810f7000010032003a
:1002500014000700000020000000e000020032004f
:100260000000020000000000ea030200000000009d
:100270000040da000000fe004440a90020002000f9
:100280000000e00003003200100020009001880010
:100290004440a800000006008a1f78008b1f7800e9
:1002a00000000600a1028800800478000000eb0036
:1002b0001f003700e284440054a0b4009905ba003e
:1002c000e284440054a0b4009906ba00e2844400d9
:1002d00054a0b4000006eb00476fde00fd07b2003b
:1002e000ae018800636ce10003003a00eaff0700fa
:1002f0000000eb000e003700606ce10008003a00df
:10030000004deb000a05e800020039003420ec0043
:100310000af0a0008b05e900f9ff3e000400370059
:100320006168e100010032000086eb000b0007006d
:1003300019c7ba001905ba000e04e00003003a001c
:100340000a00e000dbff3a0000000600fe07b200f2
:10035000ae0288008a047800f5ff37000cd0a300b5
:10036000e20f4d001c00390089027800354dba00bb
:100370000a05e800020039003420ec000af0a00071
:100380008b05e9000f003200254dba000a05e80090
:10039000020039003420ec000af0a0008b05e900cf
:1003a000080032000c00e0000600320015cdba0053
:1003b0000a05e800020039003420ec000af0a00031
:1003c0008b05e9008984e80054a0b4000b00e0002c
:1003d000e2ff3a00000006009902ba00055d7800cd
:1003e0008b05e900f7ff3200c82ade00055d7800c2
:1003f0008b05e900f3ff32000c00e000f1ff320052
:1004000019ddba00eeff3700cc0304000000000045
:100410003600f800809fbe00829fbe00849fbe0011
:10042000869fbe000000fa008020a9000000eb00bb
:10043000ed0007000080fa004f03be004f02be002f
:100440004f01be004f00be003600f900004006001c
:100450003600f800809fbe00829fbe00849fbe00d1
:10046000869fbe000000fa00e60007008040a90059
:1004700010002000dc0007000080fa004f03be00df
:100480004f02be004f01be004f00be003600f90013
:10049000004006003600f800809fbe00829fbe002c
:1004a000849fbe00869fbe000000fa008060a90005
:1004b00020002000cc0007000080fa004f03be009f
:1004c0004f02be004f01be004f00be003600f900d3
:1004d000004006003600f800809fbe00829fbe00ec
:1004e000849fbe00869fbe000000fa008080a900a5
:1004f00030002000bc0007000080fa004f03be005f
:100500004f02be004f01be004f00be003600f90092
:10051000004006003600f800809fbe00829fbe00ab
:10052000849fbe00869fbe000000fa008600a900de
:1005300070002000ac0007000080fa004f03be00ee
:100540004f02be004f01be004f00be003600f90052
:10055000004006003600f800809fbe00829fbe006b
:10056000849fbe00869fbe000000fa007b0007004b
:100570008800a9000080fa004f03be004f02be00b1
:100580004f01be004f00be003600f90000400600db
:100590003600f800809fbe00829fbe00849fbe0090
:1005a000869fbe000000fa00304080000000e0009e
:1005b0000200320030408000000001008a80a90063
:1005c0000080fa004f03be004f02be004f01be0084
:1005d0004f00be003600f900004006000040da007f
:0805e0000000fe000000050010
:020000040000fa
:1005e8000000fa006626ef007a26ef008e26ef005c
:1005f80070792000103388000080eb00b033880049
:10060800f03d2000503488007426ef008826ef0063
:100618009c26ef0000402000903388008626ef00db
:100628009a26ef006826ef007c26ef009026ef0060
:100638007000200050338800c0202f00f03388005d
:10064800f00020009034880001088000f00b2000a2
:100658000081600060042000710520000310200064
:10066800804978008149780082497800813c80007f
:10067800f00f2c008080600000c021000100700095
:10068800803c880000088000000178000260a0001b
:1006980060042000710520000310200080497800c4
:1006a80081497800824978000080fa00000006003d
:1006b8000000fa0000002300100888000621ef005f
:1006c8006821ef006a21ef000821ef000070200088
:1006d800500888000c21ef000e21ef007821ef0070
:1006e8007a21ef007c21ef007e21ef008021ef00ce
:1006f8008221ef008421ef008621ef000001eb004a
:1007080080072000a10920001310200080497800ec
:1007180081497800824978000001eb0060042000dc
:100728007105200003102000804978008149780075
:10073800824978000080fa00000006000200fa00f2
:10074800000f78009e007800314088000080fa0091
:10075800000006000000fa000080fa000000060011
:100768000000fa000080fa00000006000000fa000d
:100778008800a9008200a9009800a8008a80a90022
:100788008220a8009a80a8000080fa0000000600d5
:100798000000fa00703480004500de00614060000f
:1007a8000004a200614060000080fb00610060005e
:1007b8004500dd00713480000150a1000100700087
:1007c800703488000080fa00000006000000fa007b
:1007d80034000700c03c2000d8ff0700ffff3700a7
:1007e8000200fa00000f78009e007800214088007f
:1007f8000000fe000080fa00000006000000fa0079
:100808008080200080077800008220000001880096
:080818000080fa000000060058
:020000040000fa
:10082000080800002000000080000000040800000c
:100830000200000082000000ffff0000000800002e
:100840000400000080000000060800000200000014
:08085000800000000000000020
:020000040000fa
:100858000000fa004105800080ff2f000080600042
:100868000000a000400588009105800080ff2f004f
:10087800008060000000a000900588000080fa0059
:1008880000000600809fbe00ec8057003100780011
:10089800004088001100780002e8b7004f00be0051
:1008a800000006000000fa004dff0700e8ff0700ff
:1008b8007fff0700adff07000080fa000000060078
:020000040000fa
:020000040002f8
:04be0000ffffff0041
:020000040000fa
:020000040002f8
:04be2000ffffff0021
:020000040000fa
:020000040002f8
:04be300078ffff0098
:020000040000fa
:020000040002f8
:04be3800b7ffff0051
:020000040000fa
:020000040002f8
:04be40009fffff0061
:020000040000fa
:020000040002f8
:04be4800ffffff00f9
:020000040000fa
:020000040002f8
:04be5000dfffff0011
:020000040000fa
:020000040002f8
:04be5800ffffff00e9
:00000001FF
