:04000000CBEF3FF013
:107F96000001CEEF3FF0958094908B9083A0D6EFB2
:107FA6003FF0D8EF3FF0D1EF3FF0E6EF3FF0020EA3
:107FB600026E380E016EAD0EE82EFED7012EFCD7EE
:107FC600022EFAD700F083B0EBEF3FF0EDEF3FF073
:107FD600DAEF3FF08BA0F2EF3FF0F6EF3FF0016AE9
:107FE600012AF7EF3FF0016A8B500118FE0B0118CA
:0A7FF6008B6ED1EF3FF000EF00F0BA
:020000040020DA
:08000000FFFFFFFFFFFFFFFF00
:020000040030CA
:0E000000210E191EFF8080FF0FC00FE00F4081
:00000001FF
