:0400000080312528FE
:100008007E1480312E00161E0A280B2813280C1E79
:100018000E280F2813288031C920803123280B1F70
:100028001628172823281B1E1A281B282328111EC8
:100038001E281F28232880317D20803123287E1008
:100048000900803127287E1020008031AD2820004B
:10005800960197019801EE309100FF309200FF3031
:100068009300EF303E00B800FF30C300EF30CE0001
:10007800B901C401CF01E501BA01C501D001FF30C2
:10008800BB00FF30C600FF30D100FF30BC00FF309E
:10009800C700FF30D2000830E80014303D00BB0034
:1000A80001303E009000BD01BE01BF01C801C90179
:1000B800CA01D301D401D501E901EA01EB01080025
:1000C8003C00910192019301940195010130960041
:1000D800970198019901993090002E001112CA30A9
:1000E800F4000030F5008031C42080312E001B164A
:1000F800080003102000161C0314031884288728FE
:100108002000161489282000161072087304031999
:100118008E288F28942873088A0072080A00803174
:1001280008008031B620803180312B208031803129
:10013800642080318031A220803108002E000C100C
:100148000B140030F4000030F5008031BF208031FE
:1001580008008031952080318B170B176300B22877
:1001680080312528623031008D008F0191010230E5
:100178009300920108007508F1007408F000080067
:0E0188007508F3007408F20008000800080073
:020000040001F9
:08000000FF3FFF3FFF3FFF3F00
:0A000E00EC3FFF3F9F3FFF3FFF3F25
:00000001FF
